{"contracts/LandRegistry.sol":{"LandRegistry":{"abi":[{"anonymous":false,"inputs":[{"indexed":false,"internalType":"string","name":"name","type":"string"},{"indexed":false,"internalType":"uint256","name":"oldPrice","type":"uint256"},{"indexed":false,"internalType":"uint256","name":"newPrice","type":"uint256"}],"name":"DifferentPriceAlert","type":"event"},{"anonymous":false,"inputs":[{"indexed":true,"internalType":"uint256","name":"landmarkId","type":"uint256"},{"indexed":false,"internalType":"string","name":"name","type":"string"},{"indexed":false,"internalType":"string","name":"location","type":"string"},{"indexed":false,"internalType":"string","name":"description","type":"string"}],"name":"LandmarkAdded","type":"event"},{"anonymous":false,"inputs":[{"indexed":true,"internalType":"uint256","name":"propertyId","type":"uint256"},{"indexed":false,"internalType":"string","name":"name","type":"string"},{"indexed":false,"internalType":"string","name":"location","type":"string"},{"indexed":false,"internalType":"uint256","name":"price","type":"uint256"},{"indexed":false,"internalType":"address","name":"owner","type":"address"}],"name":"PropertyAdded","type":"event"},{"anonymous":false,"inputs":[{"indexed":true,"internalType":"uint256","name":"propertyId","type":"uint256"},{"indexed":false,"internalType":"address","name":"oldOwner","type":"address"},{"indexed":false,"internalType":"address","name":"newOwner","type":"address"}],"name":"PropertyTransferred","type":"event"},{"inputs":[{"internalType":"string","name":"_name","type":"string"},{"internalType":"string","name":"_location","type":"string"},{"internalType":"string","name":"_description","type":"string"}],"name":"addLandmark","outputs":[],"stateMutability":"nonpayable","type":"function"},{"inputs":[{"internalType":"string","name":"_name","type":"string"},{"internalType":"string","name":"_location","type":"string"},{"internalType":"uint256","name":"_price","type":"uint256"},{"internalType":"address","name":"_owner","type":"address"}],"name":"addProperty","outputs":[],"stateMutability":"nonpayable","type":"function"},{"inputs":[{"internalType":"uint256","name":"_landId","type":"uint256"}],"name":"getLandInfo","outputs":[{"internalType":"string","name":"","type":"string"},{"internalType":"string","name":"","type":"string"},{"internalType":"string","name":"","type":"string"}],"stateMutability":"view","type":"function"},{"inputs":[{"internalType":"uint256","name":"","type":"uint256"}],"name":"landmarks","outputs":[{"internalType":"string","name":"name","type":"string"},{"internalType":"string","name":"location","type":"string"},{"internalType":"string","name":"description","type":"string"}],"stateMutability":"view","type":"function"},{"inputs":[{"internalType":"uint256","name":"","type":"uint256"}],"name":"properties","outputs":[{"internalType":"string","name":"name","type":"string"},{"internalType":"string","name":"location","type":"string"},{"internalType":"uint256","name":"price","type":"uint256"},{"internalType":"address","name":"owner","type":"address"}],"stateMutability":"view","type":"function"},{"inputs":[{"internalType":"string","name":"_name","type":"string"},{"internalType":"string","name":"_location","type":"string"}],"name":"searchLand","outputs":[{"internalType":"uint256","name":"","type":"uint256"}],"stateMutability":"view","type":"function"},{"inputs":[],"name":"totalLandmarks","outputs":[{"internalType":"uint256","name":"","type":"uint256"}],"stateMutability":"view","type":"function"},{"inputs":[],"name":"totalProperties","outputs":[{"internalType":"uint256","name":"","type":"uint256"}],"stateMutability":"view","type":"function"},{"inputs":[{"internalType":"uint256","name":"_propertyId","type":"uint256"},{"internalType":"address","name":"_newOwner","type":"address"}],"name":"transferProperty","outputs":[],"stateMutability":"nonpayable","type":"function"}],"evm":{"bytecode":{"linkReferences":{},"object":"608060405234801561001057600080fd5b5061182b806100206000396000f3fe608060405234801561001057600080fd5b50600436106100935760003560e01c80634c722cdc116100665780634c722cdc146101345780636f6f9bef14610152578063a67f5d1714610184578063f7b10808146101a0578063ff356237146101d357610093565b80630b3bce20146100985780631f1bad1d146100b65780632d43573d146100e65780633db406d214610118575b600080fd5b6100a06101ef565b6040516100ad9190610d25565b60405180910390f35b6100d060048036038101906100cb9190610e9a565b6101f5565b6040516100dd9190610d25565b60405180910390f35b61010060048036038101906100fb9190610f3e565b610380565b60405161010f93929190610fea565b60405180910390f35b610132600480360381019061012d9190611094565b610542565b005b61013c6106da565b6040516101499190610d25565b60405180910390f35b61016c60048036038101906101679190610f3e565b6106e0565b60405161017b93929190610fea565b60405180910390f35b61019e60048036038101906101999190611133565b61090b565b005b6101ba60048036038101906101b59190610f3e565b6109df565b6040516101ca94939291906111e9565b60405180910390f35b6101ed60048036038101906101e8919061123c565b610b3f565b005b60025481565b600080600090505b60025481101561037457600080600083815260200190815260200160002090506102b381600001805461022f906112ab565b80601f016020809104026020016040519081016040528092919081815260200182805461025b906112ab565b80156102a85780601f1061027d576101008083540402835291602001916102a8565b820191906000526020600020905b81548152906001019060200180831161028b57829003601f168201915b505050505086610cb3565b801561035157506103508160010180546102cc906112ab565b80601f01602080910402602001604051908101604052809291908181526020018280546102f8906112ab565b80156103455780601f1061031a57610100808354040283529160200191610345565b820191906000526020600020905b81548152906001019060200180831161032857829003601f168201915b505050505085610cb3565b5b1561036057819250505061037a565b50808061036c9061130b565b9150506101fd565b50600090505b92915050565b60016020528060005260406000206000915090508060000180546103a3906112ab565b80601f01602080910402602001604051908101604052809291908181526020018280546103cf906112ab565b801561041c5780601f106103f15761010080835404028352916020019161041c565b820191906000526020600020905b8154815290600101906020018083116103ff57829003601f168201915b505050505090806001018054610431906112ab565b80601f016020809104026020016040519081016040528092919081815260200182805461045d906112ab565b80156104aa5780601f1061047f576101008083540402835291602001916104aa565b820191906000526020600020905b81548152906001019060200180831161048d57829003601f168201915b5050505050908060020180546104bf906112ab565b80601f01602080910402602001604051908101604052809291908181526020018280546104eb906112ab565b80156105385780601f1061050d57610100808354040283529160200191610538565b820191906000526020600020905b81548152906001019060200180831161051b57829003601f168201915b5050505050905083565b60006002549050600080600061055888886101f5565b81526020019081526020016000209050838160020154146105b3577fc4ce14cea2537cbe6db0cd59ae23e6829bc7d03e4c7b612d33cbffdbd01173b8868260020154866040516105aa93929190611353565b60405180910390a15b60405180608001604052808781526020018681526020018581526020018473ffffffffffffffffffffffffffffffffffffffff168152506000808481526020019081526020016000206000820151816000019081610611919061153d565b506020820151816001019081610627919061153d565b506040820151816002015560608201518160030160006101000a81548173ffffffffffffffffffffffffffffffffffffffff021916908373ffffffffffffffffffffffffffffffffffffffff1602179055509050506002600081548092919061068f9061130b565b9190505550817f42d9efe534a99ea432c00737b71473649c4c7c334307bcbab9913f64ecd970dd878787876040516106ca94939291906111e9565b60405180910390a2505050505050565b60035481565b60608060606000841180156106f757506003548411155b610736576040517f08c379a000000000000000000000000000000000000000000000000000000000815260040161072d9061165b565b60405180910390fd5b6000600160008681526020019081526020016000209050806000018160010182600201828054610765906112ab565b80601f0160208091040260200160405190810160405280929190818152602001828054610791906112ab565b80156107de5780601f106107b3576101008083540402835291602001916107de565b820191906000526020600020905b8154815290600101906020018083116107c157829003601f168201915b505050505092508180546107f1906112ab565b80601f016020809104026020016040519081016040528092919081815260200182805461081d906112ab565b801561086a5780601f1061083f5761010080835404028352916020019161086a565b820191906000526020600020905b81548152906001019060200180831161084d57829003601f168201915b5050505050915080805461087d906112ab565b80601f01602080910402602001604051908101604052809291908181526020018280546108a9906112ab565b80156108f65780601f106108cb576101008083540402835291602001916108f6565b820191906000526020600020905b8154815290600101906020018083116108d957829003601f168201915b50505050509050935093509350509193909250565b60006003549050604051806060016040528085815260200184815260200183815250600160008381526020019081526020016000206000820151816000019081610955919061153d565b50602082015181600101908161096b919061153d565b506040820151816002019081610981919061153d565b50905050600360008154809291906109989061130b565b9190505550807f6e22041b7b866dc299e6d0f7764c5cc72008a74f154f177256e1bf36679fb0e78585856040516109d193929190610fea565b60405180910390a250505050565b6000602052806000526040600020600091509050806000018054610a02906112ab565b80601f0160208091040260200160405190810160405280929190818152602001828054610a2e906112ab565b8015610a7b5780601f10610a5057610100808354040283529160200191610a7b565b820191906000526020600020905b815481529060010190602001808311610a5e57829003601f168201915b505050505090806001018054610a90906112ab565b80601f0160208091040260200160405190810160405280929190818152602001828054610abc906112ab565b8015610b095780601f10610ade57610100808354040283529160200191610b09565b820191906000526020600020905b815481529060010190602001808311610aec57829003601f168201915b5050505050908060020154908060030160009054906101000a900473ffffffffffffffffffffffffffffffffffffffff16905084565b6002548210610b83576040517f08c379a0000000000000000000000000000000000000000000000000000000008152600401610b7a906116c7565b60405180910390fd5b6000806000848152602001908152602001600020905060008160030160009054906101000a900473ffffffffffffffffffffffffffffffffffffffff1690503373ffffffffffffffffffffffffffffffffffffffff168173ffffffffffffffffffffffffffffffffffffffff1614610c30576040517f08c379a0000000000000000000000000000000000000000000000000000000008152600401610c2790611759565b60405180910390fd5b828260030160006101000a81548173ffffffffffffffffffffffffffffffffffffffff021916908373ffffffffffffffffffffffffffffffffffffffff160217905550837f2231fc8bc2c20e26d85d66dc7f13a6b6d535c86d2a4d678bb2de61f5b71360838285604051610ca5929190611779565b60405180910390a250505050565b600081604051602001610cc691906117de565b6040516020818303038152906040528051906020012083604051602001610ced91906117de565b6040516020818303038152906040528051906020012014905092915050565b6000819050919050565b610d1f81610d0c565b82525050565b6000602082019050610d3a6000830184610d16565b92915050565b6000604051905090565b600080fd5b600080fd5b600080fd5b600080fd5b6000601f19601f8301169050919050565b7f4e487b7100000000000000000000000000000000000000000000000000000000600052604160045260246000fd5b610da782610d5e565b810181811067ffffffffffffffff82111715610dc657610dc5610d6f565b5b80604052505050565b6000610dd9610d40565b9050610de58282610d9e565b919050565b600067ffffffffffffffff821115610e0557610e04610d6f565b5b610e0e82610d5e565b9050602081019050919050565b82818337600083830152505050565b6000610e3d610e3884610dea565b610dcf565b905082815260208101848484011115610e5957610e58610d59565b5b610e64848285610e1b565b509392505050565b600082601f830112610e8157610e80610d54565b5b8135610e91848260208601610e2a565b91505092915050565b60008060408385031215610eb157610eb0610d4a565b5b600083013567ffffffffffffffff811115610ecf57610ece610d4f565b5b610edb85828601610e6c565b925050602083013567ffffffffffffffff811115610efc57610efb610d4f565b5b610f0885828601610e6c565b9150509250929050565b610f1b81610d0c565b8114610f2657600080fd5b50565b600081359050610f3881610f12565b92915050565b600060208284031215610f5457610f53610d4a565b5b6000610f6284828501610f29565b91505092915050565b600081519050919050565b600082825260208201905092915050565b60005b83811015610fa5578082015181840152602081019050610f8a565b60008484015250505050565b6000610fbc82610f6b565b610fc68185610f76565b9350610fd6818560208601610f87565b610fdf81610d5e565b840191505092915050565b600060608201905081810360008301526110048186610fb1565b905081810360208301526110188185610fb1565b9050818103604083015261102c8184610fb1565b9050949350505050565b600073ffffffffffffffffffffffffffffffffffffffff82169050919050565b600061106182611036565b9050919050565b61107181611056565b811461107c57600080fd5b50565b60008135905061108e81611068565b92915050565b600080600080608085870312156110ae576110ad610d4a565b5b600085013567ffffffffffffffff8111156110cc576110cb610d4f565b5b6110d887828801610e6c565b945050602085013567ffffffffffffffff8111156110f9576110f8610d4f565b5b61110587828801610e6c565b935050604061111687828801610f29565b92505060606111278782880161107f565b91505092959194509250565b60008060006060848603121561114c5761114b610d4a565b5b600084013567ffffffffffffffff81111561116a57611169610d4f565b5b61117686828701610e6c565b935050602084013567ffffffffffffffff81111561119757611196610d4f565b5b6111a386828701610e6c565b925050604084013567ffffffffffffffff8111156111c4576111c3610d4f565b5b6111d086828701610e6c565b9150509250925092565b6111e381611056565b82525050565b600060808201905081810360008301526112038187610fb1565b905081810360208301526112178186610fb1565b90506112266040830185610d16565b61123360608301846111da565b95945050505050565b6000806040838503121561125357611252610d4a565b5b600061126185828601610f29565b92505060206112728582860161107f565b9150509250929050565b7f4e487b7100000000000000000000000000000000000000000000000000000000600052602260045260246000fd5b600060028204905060018216806112c357607f821691505b6020821081036112d6576112d561127c565b5b50919050565b7f4e487b7100000000000000000000000000000000000000000000000000000000600052601160045260246000fd5b600061131682610d0c565b91507fffffffffffffffffffffffffffffffffffffffffffffffffffffffffffffffff8203611348576113476112dc565b5b600182019050919050565b6000606082019050818103600083015261136d8186610fb1565b905061137c6020830185610d16565b6113896040830184610d16565b949350505050565b60008190508160005260206000209050919050565b60006020601f8301049050919050565b600082821b905092915050565b6000600883026113f37fffffffffffffffffffffffffffffffffffffffffffffffffffffffffffffffff826113b6565b6113fd86836113b6565b95508019841693508086168417925050509392505050565b6000819050919050565b600061143a61143561143084610d0c565b611415565b610d0c565b9050919050565b6000819050919050565b6114548361141f565b61146861146082611441565b8484546113c3565b825550505050565b600090565b61147d611470565b61148881848461144b565b505050565b5b818110156114ac576114a1600082611475565b60018101905061148e565b5050565b601f8211156114f1576114c281611391565b6114cb846113a6565b810160208510156114da578190505b6114ee6114e6856113a6565b83018261148d565b50505b505050565b600082821c905092915050565b6000611514600019846008026114f6565b1980831691505092915050565b600061152d8383611503565b9150826002028217905092915050565b61154682610f6b565b67ffffffffffffffff81111561155f5761155e610d6f565b5b61156982546112ab565b6115748282856114b0565b600060209050601f8311600181146115a75760008415611595578287015190505b61159f8582611521565b865550611607565b601f1984166115b586611391565b60005b828110156115dd578489015182556001820191506020850194506020810190506115b8565b868310156115fa57848901516115f6601f891682611503565b8355505b6001600288020188555050505b505050505050565b7f496e76616c6964206c616e642049440000000000000000000000000000000000600082015250565b6000611645600f83610f76565b91506116508261160f565b602082019050919050565b6000602082019050818103600083015261167481611638565b9050919050565b7f496e76616c69642070726f706572747920494400000000000000000000000000600082015250565b60006116b1601383610f76565b91506116bc8261167b565b602082019050919050565b600060208201905081810360008301526116e0816116a4565b9050919050565b7f596f7520617265206e6f7420746865206f776e6572206f66207468697320707260008201527f6f70657274790000000000000000000000000000000000000000000000000000602082015250565b6000611743602683610f76565b915061174e826116e7565b604082019050919050565b6000602082019050818103600083015261177281611736565b9050919050565b600060408201905061178e60008301856111da565b61179b60208301846111da565b9392505050565b600081905092915050565b60006117b882610f6b565b6117c281856117a2565b93506117d2818560208601610f87565b80840191505092915050565b60006117ea82846117ad565b91508190509291505056fea2646970667358221220011422a9d92cd7aa823fe494cb5ee05f938c47724f5f7794399b56cab1a7f75064736f6c63430008120033","opcodes":"PUSH1 0x80 PUSH1 0x40 MSTORE CALLVALUE DUP1 ISZERO PUSH2 0x10 JUMPI PUSH1 0x0 DUP1 REVERT JUMPDEST POP PUSH2 0x182B DUP1 PUSH2 0x20 PUSH1 0x0 CODECOPY PUSH1 0x0 RETURN INVALID PUSH1 0x80 PUSH1 0x40 MSTORE CALLVALUE DUP1 ISZERO PUSH2 0x10 JUMPI PUSH1 0x0 DUP1 REVERT JUMPDEST POP PUSH1 0x4 CALLDATASIZE LT PUSH2 0x93 JUMPI PUSH1 0x0 CALLDATALOAD PUSH1 0xE0 SHR DUP1 PUSH4 0x4C722CDC GT PUSH2 0x66 JUMPI DUP1 PUSH4 0x4C722CDC EQ PUSH2 0x134 JUMPI DUP1 PUSH4 0x6F6F9BEF EQ PUSH2 0x152 JUMPI DUP1 PUSH4 0xA67F5D17 EQ PUSH2 0x184 JUMPI DUP1 PUSH4 0xF7B10808 EQ PUSH2 0x1A0 JUMPI DUP1 PUSH4 0xFF356237 EQ PUSH2 0x1D3 JUMPI PUSH2 0x93 JUMP JUMPDEST DUP1 PUSH4 0xB3BCE20 EQ PUSH2 0x98 JUMPI DUP1 PUSH4 0x1F1BAD1D EQ PUSH2 0xB6 JUMPI DUP1 PUSH4 0x2D43573D EQ PUSH2 0xE6 JUMPI DUP1 PUSH4 0x3DB406D2 EQ PUSH2 0x118 JUMPI JUMPDEST PUSH1 0x0 DUP1 REVERT JUMPDEST PUSH2 0xA0 PUSH2 0x1EF JUMP JUMPDEST PUSH1 0x40 MLOAD PUSH2 0xAD SWAP2 SWAP1 PUSH2 0xD25 JUMP JUMPDEST PUSH1 0x40 MLOAD DUP1 SWAP2 SUB SWAP1 RETURN JUMPDEST PUSH2 0xD0 PUSH1 0x4 DUP1 CALLDATASIZE SUB DUP2 ADD SWAP1 PUSH2 0xCB SWAP2 SWAP1 PUSH2 0xE9A JUMP JUMPDEST PUSH2 0x1F5 JUMP JUMPDEST PUSH1 0x40 MLOAD PUSH2 0xDD SWAP2 SWAP1 PUSH2 0xD25 JUMP JUMPDEST PUSH1 0x40 MLOAD DUP1 SWAP2 SUB SWAP1 RETURN JUMPDEST PUSH2 0x100 PUSH1 0x4 DUP1 CALLDATASIZE SUB DUP2 ADD SWAP1 PUSH2 0xFB SWAP2 SWAP1 PUSH2 0xF3E JUMP JUMPDEST PUSH2 0x380 JUMP JUMPDEST PUSH1 0x40 MLOAD PUSH2 0x10F SWAP4 SWAP3 SWAP2 SWAP1 PUSH2 0xFEA JUMP JUMPDEST PUSH1 0x40 MLOAD DUP1 SWAP2 SUB SWAP1 RETURN JUMPDEST PUSH2 0x132 PUSH1 0x4 DUP1 CALLDATASIZE SUB DUP2 ADD SWAP1 PUSH2 0x12D SWAP2 SWAP1 PUSH2 0x1094 JUMP JUMPDEST PUSH2 0x542 JUMP JUMPDEST STOP JUMPDEST PUSH2 0x13C PUSH2 0x6DA JUMP JUMPDEST PUSH1 0x40 MLOAD PUSH2 0x149 SWAP2 SWAP1 PUSH2 0xD25 JUMP JUMPDEST PUSH1 0x40 MLOAD DUP1 SWAP2 SUB SWAP1 RETURN JUMPDEST PUSH2 0x16C PUSH1 0x4 DUP1 CALLDATASIZE SUB DUP2 ADD SWAP1 PUSH2 0x167 SWAP2 SWAP1 PUSH2 0xF3E JUMP JUMPDEST PUSH2 0x6E0 JUMP JUMPDEST PUSH1 0x40 MLOAD PUSH2 0x17B SWAP4 SWAP3 SWAP2 SWAP1 PUSH2 0xFEA JUMP JUMPDEST PUSH1 0x40 MLOAD DUP1 SWAP2 SUB SWAP1 RETURN JUMPDEST PUSH2 0x19E PUSH1 0x4 DUP1 CALLDATASIZE SUB DUP2 ADD SWAP1 PUSH2 0x199 SWAP2 SWAP1 PUSH2 0x1133 JUMP JUMPDEST PUSH2 0x90B JUMP JUMPDEST STOP JUMPDEST PUSH2 0x1BA PUSH1 0x4 DUP1 CALLDATASIZE SUB DUP2 ADD SWAP1 PUSH2 0x1B5 SWAP2 SWAP1 PUSH2 0xF3E JUMP JUMPDEST PUSH2 0x9DF JUMP JUMPDEST PUSH1 0x40 MLOAD PUSH2 0x1CA SWAP5 SWAP4 SWAP3 SWAP2 SWAP1 PUSH2 0x11E9 JUMP JUMPDEST PUSH1 0x40 MLOAD DUP1 SWAP2 SUB SWAP1 RETURN JUMPDEST PUSH2 0x1ED PUSH1 0x4 DUP1 CALLDATASIZE SUB DUP2 ADD SWAP1 PUSH2 0x1E8 SWAP2 SWAP1 PUSH2 0x123C JUMP JUMPDEST PUSH2 0xB3F JUMP JUMPDEST STOP JUMPDEST PUSH1 0x2 SLOAD DUP2 JUMP JUMPDEST PUSH1 0x0 DUP1 PUSH1 0x0 SWAP1 POP JUMPDEST PUSH1 0x2 SLOAD DUP2 LT ISZERO PUSH2 0x374 JUMPI PUSH1 0x0 DUP1 PUSH1 0x0 DUP4 DUP2 MSTORE PUSH1 0x20 ADD SWAP1 DUP2 MSTORE PUSH1 0x20 ADD PUSH1 0x0 KECCAK256 SWAP1 POP PUSH2 0x2B3 DUP2 PUSH1 0x0 ADD DUP1 SLOAD PUSH2 0x22F SWAP1 PUSH2 0x12AB JUMP JUMPDEST DUP1 PUSH1 0x1F ADD PUSH1 0x20 DUP1 SWAP2 DIV MUL PUSH1 0x20 ADD PUSH1 0x40 MLOAD SWAP1 DUP2 ADD PUSH1 0x40 MSTORE DUP1 SWAP3 SWAP2 SWAP1 DUP2 DUP2 MSTORE PUSH1 0x20 ADD DUP3 DUP1 SLOAD PUSH2 0x25B SWAP1 PUSH2 0x12AB JUMP JUMPDEST DUP1 ISZERO PUSH2 0x2A8 JUMPI DUP1 PUSH1 0x1F LT PUSH2 0x27D JUMPI PUSH2 0x100 DUP1 DUP4 SLOAD DIV MUL DUP4 MSTORE SWAP2 PUSH1 0x20 ADD SWAP2 PUSH2 0x2A8 JUMP JUMPDEST DUP3 ADD SWAP2 SWAP1 PUSH1 0x0 MSTORE PUSH1 0x20 PUSH1 0x0 KECCAK256 SWAP1 JUMPDEST DUP2 SLOAD DUP2 MSTORE SWAP1 PUSH1 0x1 ADD SWAP1 PUSH1 0x20 ADD DUP1 DUP4 GT PUSH2 0x28B JUMPI DUP3 SWAP1 SUB PUSH1 0x1F AND DUP3 ADD SWAP2 JUMPDEST POP POP POP POP POP DUP7 PUSH2 0xCB3 JUMP JUMPDEST DUP1 ISZERO PUSH2 0x351 JUMPI POP PUSH2 0x350 DUP2 PUSH1 0x1 ADD DUP1 SLOAD PUSH2 0x2CC SWAP1 PUSH2 0x12AB JUMP JUMPDEST DUP1 PUSH1 0x1F ADD PUSH1 0x20 DUP1 SWAP2 DIV MUL PUSH1 0x20 ADD PUSH1 0x40 MLOAD SWAP1 DUP2 ADD PUSH1 0x40 MSTORE DUP1 SWAP3 SWAP2 SWAP1 DUP2 DUP2 MSTORE PUSH1 0x20 ADD DUP3 DUP1 SLOAD PUSH2 0x2F8 SWAP1 PUSH2 0x12AB JUMP JUMPDEST DUP1 ISZERO PUSH2 0x345 JUMPI DUP1 PUSH1 0x1F LT PUSH2 0x31A JUMPI PUSH2 0x100 DUP1 DUP4 SLOAD DIV MUL DUP4 MSTORE SWAP2 PUSH1 0x20 ADD SWAP2 PUSH2 0x345 JUMP JUMPDEST DUP3 ADD SWAP2 SWAP1 PUSH1 0x0 MSTORE PUSH1 0x20 PUSH1 0x0 KECCAK256 SWAP1 JUMPDEST DUP2 SLOAD DUP2 MSTORE SWAP1 PUSH1 0x1 ADD SWAP1 PUSH1 0x20 ADD DUP1 DUP4 GT PUSH2 0x328 JUMPI DUP3 SWAP1 SUB PUSH1 0x1F AND DUP3 ADD SWAP2 JUMPDEST POP POP POP POP POP DUP6 PUSH2 0xCB3 JUMP JUMPDEST JUMPDEST ISZERO PUSH2 0x360 JUMPI DUP2 SWAP3 POP POP POP PUSH2 0x37A JUMP JUMPDEST POP DUP1 DUP1 PUSH2 0x36C SWAP1 PUSH2 0x130B JUMP JUMPDEST SWAP2 POP POP PUSH2 0x1FD JUMP JUMPDEST POP PUSH1 0x0 SWAP1 POP JUMPDEST SWAP3 SWAP2 POP POP JUMP JUMPDEST PUSH1 0x1 PUSH1 0x20 MSTORE DUP1 PUSH1 0x0 MSTORE PUSH1 0x40 PUSH1 0x0 KECCAK256 PUSH1 0x0 SWAP2 POP SWAP1 POP DUP1 PUSH1 0x0 ADD DUP1 SLOAD PUSH2 0x3A3 SWAP1 PUSH2 0x12AB JUMP JUMPDEST DUP1 PUSH1 0x1F ADD PUSH1 0x20 DUP1 SWAP2 DIV MUL PUSH1 0x20 ADD PUSH1 0x40 MLOAD SWAP1 DUP2 ADD PUSH1 0x40 MSTORE DUP1 SWAP3 SWAP2 SWAP1 DUP2 DUP2 MSTORE PUSH1 0x20 ADD DUP3 DUP1 SLOAD PUSH2 0x3CF SWAP1 PUSH2 0x12AB JUMP JUMPDEST DUP1 ISZERO PUSH2 0x41C JUMPI DUP1 PUSH1 0x1F LT PUSH2 0x3F1 JUMPI PUSH2 0x100 DUP1 DUP4 SLOAD DIV MUL DUP4 MSTORE SWAP2 PUSH1 0x20 ADD SWAP2 PUSH2 0x41C JUMP JUMPDEST DUP3 ADD SWAP2 SWAP1 PUSH1 0x0 MSTORE PUSH1 0x20 PUSH1 0x0 KECCAK256 SWAP1 JUMPDEST DUP2 SLOAD DUP2 MSTORE SWAP1 PUSH1 0x1 ADD SWAP1 PUSH1 0x20 ADD DUP1 DUP4 GT PUSH2 0x3FF JUMPI DUP3 SWAP1 SUB PUSH1 0x1F AND DUP3 ADD SWAP2 JUMPDEST POP POP POP POP POP SWAP1 DUP1 PUSH1 0x1 ADD DUP1 SLOAD PUSH2 0x431 SWAP1 PUSH2 0x12AB JUMP JUMPDEST DUP1 PUSH1 0x1F ADD PUSH1 0x20 DUP1 SWAP2 DIV MUL PUSH1 0x20 ADD PUSH1 0x40 MLOAD SWAP1 DUP2 ADD PUSH1 0x40 MSTORE DUP1 SWAP3 SWAP2 SWAP1 DUP2 DUP2 MSTORE PUSH1 0x20 ADD DUP3 DUP1 SLOAD PUSH2 0x45D SWAP1 PUSH2 0x12AB JUMP JUMPDEST DUP1 ISZERO PUSH2 0x4AA JUMPI DUP1 PUSH1 0x1F LT PUSH2 0x47F JUMPI PUSH2 0x100 DUP1 DUP4 SLOAD DIV MUL DUP4 MSTORE SWAP2 PUSH1 0x20 ADD SWAP2 PUSH2 0x4AA JUMP JUMPDEST DUP3 ADD SWAP2 SWAP1 PUSH1 0x0 MSTORE PUSH1 0x20 PUSH1 0x0 KECCAK256 SWAP1 JUMPDEST DUP2 SLOAD DUP2 MSTORE SWAP1 PUSH1 0x1 ADD SWAP1 PUSH1 0x20 ADD DUP1 DUP4 GT PUSH2 0x48D JUMPI DUP3 SWAP1 SUB PUSH1 0x1F AND DUP3 ADD SWAP2 JUMPDEST POP POP POP POP POP SWAP1 DUP1 PUSH1 0x2 ADD DUP1 SLOAD PUSH2 0x4BF SWAP1 PUSH2 0x12AB JUMP JUMPDEST DUP1 PUSH1 0x1F ADD PUSH1 0x20 DUP1 SWAP2 DIV MUL PUSH1 0x20 ADD PUSH1 0x40 MLOAD SWAP1 DUP2 ADD PUSH1 0x40 MSTORE DUP1 SWAP3 SWAP2 SWAP1 DUP2 DUP2 MSTORE PUSH1 0x20 ADD DUP3 DUP1 SLOAD PUSH2 0x4EB SWAP1 PUSH2 0x12AB JUMP JUMPDEST DUP1 ISZERO PUSH2 0x538 JUMPI DUP1 PUSH1 0x1F LT PUSH2 0x50D JUMPI PUSH2 0x100 DUP1 DUP4 SLOAD DIV MUL DUP4 MSTORE SWAP2 PUSH1 0x20 ADD SWAP2 PUSH2 0x538 JUMP JUMPDEST DUP3 ADD SWAP2 SWAP1 PUSH1 0x0 MSTORE PUSH1 0x20 PUSH1 0x0 KECCAK256 SWAP1 JUMPDEST DUP2 SLOAD DUP2 MSTORE SWAP1 PUSH1 0x1 ADD SWAP1 PUSH1 0x20 ADD DUP1 DUP4 GT PUSH2 0x51B JUMPI DUP3 SWAP1 SUB PUSH1 0x1F AND DUP3 ADD SWAP2 JUMPDEST POP POP POP POP POP SWAP1 POP DUP4 JUMP JUMPDEST PUSH1 0x0 PUSH1 0x2 SLOAD SWAP1 POP PUSH1 0x0 DUP1 PUSH1 0x0 PUSH2 0x558 DUP9 DUP9 PUSH2 0x1F5 JUMP JUMPDEST DUP2 MSTORE PUSH1 0x20 ADD SWAP1 DUP2 MSTORE PUSH1 0x20 ADD PUSH1 0x0 KECCAK256 SWAP1 POP DUP4 DUP2 PUSH1 0x2 ADD SLOAD EQ PUSH2 0x5B3 JUMPI PUSH32 0xC4CE14CEA2537CBE6DB0CD59AE23E6829BC7D03E4C7B612D33CBFFDBD01173B8 DUP7 DUP3 PUSH1 0x2 ADD SLOAD DUP7 PUSH1 0x40 MLOAD PUSH2 0x5AA SWAP4 SWAP3 SWAP2 SWAP1 PUSH2 0x1353 JUMP JUMPDEST PUSH1 0x40 MLOAD DUP1 SWAP2 SUB SWAP1 LOG1 JUMPDEST PUSH1 0x40 MLOAD DUP1 PUSH1 0x80 ADD PUSH1 0x40 MSTORE DUP1 DUP8 DUP2 MSTORE PUSH1 0x20 ADD DUP7 DUP2 MSTORE PUSH1 0x20 ADD DUP6 DUP2 MSTORE PUSH1 0x20 ADD DUP5 PUSH20 0xFFFFFFFFFFFFFFFFFFFFFFFFFFFFFFFFFFFFFFFF AND DUP2 MSTORE POP PUSH1 0x0 DUP1 DUP5 DUP2 MSTORE PUSH1 0x20 ADD SWAP1 DUP2 MSTORE PUSH1 0x20 ADD PUSH1 0x0 KECCAK256 PUSH1 0x0 DUP3 ADD MLOAD DUP2 PUSH1 0x0 ADD SWAP1 DUP2 PUSH2 0x611 SWAP2 SWAP1 PUSH2 0x153D JUMP JUMPDEST POP PUSH1 0x20 DUP3 ADD MLOAD DUP2 PUSH1 0x1 ADD SWAP1 DUP2 PUSH2 0x627 SWAP2 SWAP1 PUSH2 0x153D JUMP JUMPDEST POP PUSH1 0x40 DUP3 ADD MLOAD DUP2 PUSH1 0x2 ADD SSTORE PUSH1 0x60 DUP3 ADD MLOAD DUP2 PUSH1 0x3 ADD PUSH1 0x0 PUSH2 0x100 EXP DUP2 SLOAD DUP2 PUSH20 0xFFFFFFFFFFFFFFFFFFFFFFFFFFFFFFFFFFFFFFFF MUL NOT AND SWAP1 DUP4 PUSH20 0xFFFFFFFFFFFFFFFFFFFFFFFFFFFFFFFFFFFFFFFF AND MUL OR SWAP1 SSTORE POP SWAP1 POP POP PUSH1 0x2 PUSH1 0x0 DUP2 SLOAD DUP1 SWAP3 SWAP2 SWAP1 PUSH2 0x68F SWAP1 PUSH2 0x130B JUMP JUMPDEST SWAP2 SWAP1 POP SSTORE POP DUP2 PUSH32 0x42D9EFE534A99EA432C00737B71473649C4C7C334307BCBAB9913F64ECD970DD DUP8 DUP8 DUP8 DUP8 PUSH1 0x40 MLOAD PUSH2 0x6CA SWAP5 SWAP4 SWAP3 SWAP2 SWAP1 PUSH2 0x11E9 JUMP JUMPDEST PUSH1 0x40 MLOAD DUP1 SWAP2 SUB SWAP1 LOG2 POP POP POP POP POP POP JUMP JUMPDEST PUSH1 0x3 SLOAD DUP2 JUMP JUMPDEST PUSH1 0x60 DUP1 PUSH1 0x60 PUSH1 0x0 DUP5 GT DUP1 ISZERO PUSH2 0x6F7 JUMPI POP PUSH1 0x3 SLOAD DUP5 GT ISZERO JUMPDEST PUSH2 0x736 JUMPI PUSH1 0x40 MLOAD PUSH32 0x8C379A000000000000000000000000000000000000000000000000000000000 DUP2 MSTORE PUSH1 0x4 ADD PUSH2 0x72D SWAP1 PUSH2 0x165B JUMP JUMPDEST PUSH1 0x40 MLOAD DUP1 SWAP2 SUB SWAP1 REVERT JUMPDEST PUSH1 0x0 PUSH1 0x1 PUSH1 0x0 DUP7 DUP2 MSTORE PUSH1 0x20 ADD SWAP1 DUP2 MSTORE PUSH1 0x20 ADD PUSH1 0x0 KECCAK256 SWAP1 POP DUP1 PUSH1 0x0 ADD DUP2 PUSH1 0x1 ADD DUP3 PUSH1 0x2 ADD DUP3 DUP1 SLOAD PUSH2 0x765 SWAP1 PUSH2 0x12AB JUMP JUMPDEST DUP1 PUSH1 0x1F ADD PUSH1 0x20 DUP1 SWAP2 DIV MUL PUSH1 0x20 ADD PUSH1 0x40 MLOAD SWAP1 DUP2 ADD PUSH1 0x40 MSTORE DUP1 SWAP3 SWAP2 SWAP1 DUP2 DUP2 MSTORE PUSH1 0x20 ADD DUP3 DUP1 SLOAD PUSH2 0x791 SWAP1 PUSH2 0x12AB JUMP JUMPDEST DUP1 ISZERO PUSH2 0x7DE JUMPI DUP1 PUSH1 0x1F LT PUSH2 0x7B3 JUMPI PUSH2 0x100 DUP1 DUP4 SLOAD DIV MUL DUP4 MSTORE SWAP2 PUSH1 0x20 ADD SWAP2 PUSH2 0x7DE JUMP JUMPDEST DUP3 ADD SWAP2 SWAP1 PUSH1 0x0 MSTORE PUSH1 0x20 PUSH1 0x0 KECCAK256 SWAP1 JUMPDEST DUP2 SLOAD DUP2 MSTORE SWAP1 PUSH1 0x1 ADD SWAP1 PUSH1 0x20 ADD DUP1 DUP4 GT PUSH2 0x7C1 JUMPI DUP3 SWAP1 SUB PUSH1 0x1F AND DUP3 ADD SWAP2 JUMPDEST POP POP POP POP POP SWAP3 POP DUP2 DUP1 SLOAD PUSH2 0x7F1 SWAP1 PUSH2 0x12AB JUMP JUMPDEST DUP1 PUSH1 0x1F ADD PUSH1 0x20 DUP1 SWAP2 DIV MUL PUSH1 0x20 ADD PUSH1 0x40 MLOAD SWAP1 DUP2 ADD PUSH1 0x40 MSTORE DUP1 SWAP3 SWAP2 SWAP1 DUP2 DUP2 MSTORE PUSH1 0x20 ADD DUP3 DUP1 SLOAD PUSH2 0x81D SWAP1 PUSH2 0x12AB JUMP JUMPDEST DUP1 ISZERO PUSH2 0x86A JUMPI DUP1 PUSH1 0x1F LT PUSH2 0x83F JUMPI PUSH2 0x100 DUP1 DUP4 SLOAD DIV MUL DUP4 MSTORE SWAP2 PUSH1 0x20 ADD SWAP2 PUSH2 0x86A JUMP JUMPDEST DUP3 ADD SWAP2 SWAP1 PUSH1 0x0 MSTORE PUSH1 0x20 PUSH1 0x0 KECCAK256 SWAP1 JUMPDEST DUP2 SLOAD DUP2 MSTORE SWAP1 PUSH1 0x1 ADD SWAP1 PUSH1 0x20 ADD DUP1 DUP4 GT PUSH2 0x84D JUMPI DUP3 SWAP1 SUB PUSH1 0x1F AND DUP3 ADD SWAP2 JUMPDEST POP POP POP POP POP SWAP2 POP DUP1 DUP1 SLOAD PUSH2 0x87D SWAP1 PUSH2 0x12AB JUMP JUMPDEST DUP1 PUSH1 0x1F ADD PUSH1 0x20 DUP1 SWAP2 DIV MUL PUSH1 0x20 ADD PUSH1 0x40 MLOAD SWAP1 DUP2 ADD PUSH1 0x40 MSTORE DUP1 SWAP3 SWAP2 SWAP1 DUP2 DUP2 MSTORE PUSH1 0x20 ADD DUP3 DUP1 SLOAD PUSH2 0x8A9 SWAP1 PUSH2 0x12AB JUMP JUMPDEST DUP1 ISZERO PUSH2 0x8F6 JUMPI DUP1 PUSH1 0x1F LT PUSH2 0x8CB JUMPI PUSH2 0x100 DUP1 DUP4 SLOAD DIV MUL DUP4 MSTORE SWAP2 PUSH1 0x20 ADD SWAP2 PUSH2 0x8F6 JUMP JUMPDEST DUP3 ADD SWAP2 SWAP1 PUSH1 0x0 MSTORE PUSH1 0x20 PUSH1 0x0 KECCAK256 SWAP1 JUMPDEST DUP2 SLOAD DUP2 MSTORE SWAP1 PUSH1 0x1 ADD SWAP1 PUSH1 0x20 ADD DUP1 DUP4 GT PUSH2 0x8D9 JUMPI DUP3 SWAP1 SUB PUSH1 0x1F AND DUP3 ADD SWAP2 JUMPDEST POP POP POP POP POP SWAP1 POP SWAP4 POP SWAP4 POP SWAP4 POP POP SWAP2 SWAP4 SWAP1 SWAP3 POP JUMP JUMPDEST PUSH1 0x0 PUSH1 0x3 SLOAD SWAP1 POP PUSH1 0x40 MLOAD DUP1 PUSH1 0x60 ADD PUSH1 0x40 MSTORE DUP1 DUP6 DUP2 MSTORE PUSH1 0x20 ADD DUP5 DUP2 MSTORE PUSH1 0x20 ADD DUP4 DUP2 MSTORE POP PUSH1 0x1 PUSH1 0x0 DUP4 DUP2 MSTORE PUSH1 0x20 ADD SWAP1 DUP2 MSTORE PUSH1 0x20 ADD PUSH1 0x0 KECCAK256 PUSH1 0x0 DUP3 ADD MLOAD DUP2 PUSH1 0x0 ADD SWAP1 DUP2 PUSH2 0x955 SWAP2 SWAP1 PUSH2 0x153D JUMP JUMPDEST POP PUSH1 0x20 DUP3 ADD MLOAD DUP2 PUSH1 0x1 ADD SWAP1 DUP2 PUSH2 0x96B SWAP2 SWAP1 PUSH2 0x153D JUMP JUMPDEST POP PUSH1 0x40 DUP3 ADD MLOAD DUP2 PUSH1 0x2 ADD SWAP1 DUP2 PUSH2 0x981 SWAP2 SWAP1 PUSH2 0x153D JUMP JUMPDEST POP SWAP1 POP POP PUSH1 0x3 PUSH1 0x0 DUP2 SLOAD DUP1 SWAP3 SWAP2 SWAP1 PUSH2 0x998 SWAP1 PUSH2 0x130B JUMP JUMPDEST SWAP2 SWAP1 POP SSTORE POP DUP1 PUSH32 0x6E22041B7B866DC299E6D0F7764C5CC72008A74F154F177256E1BF36679FB0E7 DUP6 DUP6 DUP6 PUSH1 0x40 MLOAD PUSH2 0x9D1 SWAP4 SWAP3 SWAP2 SWAP1 PUSH2 0xFEA JUMP JUMPDEST PUSH1 0x40 MLOAD DUP1 SWAP2 SUB SWAP1 LOG2 POP POP POP POP JUMP JUMPDEST PUSH1 0x0 PUSH1 0x20 MSTORE DUP1 PUSH1 0x0 MSTORE PUSH1 0x40 PUSH1 0x0 KECCAK256 PUSH1 0x0 SWAP2 POP SWAP1 POP DUP1 PUSH1 0x0 ADD DUP1 SLOAD PUSH2 0xA02 SWAP1 PUSH2 0x12AB JUMP JUMPDEST DUP1 PUSH1 0x1F ADD PUSH1 0x20 DUP1 SWAP2 DIV MUL PUSH1 0x20 ADD PUSH1 0x40 MLOAD SWAP1 DUP2 ADD PUSH1 0x40 MSTORE DUP1 SWAP3 SWAP2 SWAP1 DUP2 DUP2 MSTORE PUSH1 0x20 ADD DUP3 DUP1 SLOAD PUSH2 0xA2E SWAP1 PUSH2 0x12AB JUMP JUMPDEST DUP1 ISZERO PUSH2 0xA7B JUMPI DUP1 PUSH1 0x1F LT PUSH2 0xA50 JUMPI PUSH2 0x100 DUP1 DUP4 SLOAD DIV MUL DUP4 MSTORE SWAP2 PUSH1 0x20 ADD SWAP2 PUSH2 0xA7B JUMP JUMPDEST DUP3 ADD SWAP2 SWAP1 PUSH1 0x0 MSTORE PUSH1 0x20 PUSH1 0x0 KECCAK256 SWAP1 JUMPDEST DUP2 SLOAD DUP2 MSTORE SWAP1 PUSH1 0x1 ADD SWAP1 PUSH1 0x20 ADD DUP1 DUP4 GT PUSH2 0xA5E JUMPI DUP3 SWAP1 SUB PUSH1 0x1F AND DUP3 ADD SWAP2 JUMPDEST POP POP POP POP POP SWAP1 DUP1 PUSH1 0x1 ADD DUP1 SLOAD PUSH2 0xA90 SWAP1 PUSH2 0x12AB JUMP JUMPDEST DUP1 PUSH1 0x1F ADD PUSH1 0x20 DUP1 SWAP2 DIV MUL PUSH1 0x20 ADD PUSH1 0x40 MLOAD SWAP1 DUP2 ADD PUSH1 0x40 MSTORE DUP1 SWAP3 SWAP2 SWAP1 DUP2 DUP2 MSTORE PUSH1 0x20 ADD DUP3 DUP1 SLOAD PUSH2 0xABC SWAP1 PUSH2 0x12AB JUMP JUMPDEST DUP1 ISZERO PUSH2 0xB09 JUMPI DUP1 PUSH1 0x1F LT PUSH2 0xADE JUMPI PUSH2 0x100 DUP1 DUP4 SLOAD DIV MUL DUP4 MSTORE SWAP2 PUSH1 0x20 ADD SWAP2 PUSH2 0xB09 JUMP JUMPDEST DUP3 ADD SWAP2 SWAP1 PUSH1 0x0 MSTORE PUSH1 0x20 PUSH1 0x0 KECCAK256 SWAP1 JUMPDEST DUP2 SLOAD DUP2 MSTORE SWAP1 PUSH1 0x1 ADD SWAP1 PUSH1 0x20 ADD DUP1 DUP4 GT PUSH2 0xAEC JUMPI DUP3 SWAP1 SUB PUSH1 0x1F AND DUP3 ADD SWAP2 JUMPDEST POP POP POP POP POP SWAP1 DUP1 PUSH1 0x2 ADD SLOAD SWAP1 DUP1 PUSH1 0x3 ADD PUSH1 0x0 SWAP1 SLOAD SWAP1 PUSH2 0x100 EXP SWAP1 DIV PUSH20 0xFFFFFFFFFFFFFFFFFFFFFFFFFFFFFFFFFFFFFFFF AND SWAP1 POP DUP5 JUMP JUMPDEST PUSH1 0x2 SLOAD DUP3 LT PUSH2 0xB83 JUMPI PUSH1 0x40 MLOAD PUSH32 0x8C379A000000000000000000000000000000000000000000000000000000000 DUP2 MSTORE PUSH1 0x4 ADD PUSH2 0xB7A SWAP1 PUSH2 0x16C7 JUMP JUMPDEST PUSH1 0x40 MLOAD DUP1 SWAP2 SUB SWAP1 REVERT JUMPDEST PUSH1 0x0 DUP1 PUSH1 0x0 DUP5 DUP2 MSTORE PUSH1 0x20 ADD SWAP1 DUP2 MSTORE PUSH1 0x20 ADD PUSH1 0x0 KECCAK256 SWAP1 POP PUSH1 0x0 DUP2 PUSH1 0x3 ADD PUSH1 0x0 SWAP1 SLOAD SWAP1 PUSH2 0x100 EXP SWAP1 DIV PUSH20 0xFFFFFFFFFFFFFFFFFFFFFFFFFFFFFFFFFFFFFFFF AND SWAP1 POP CALLER PUSH20 0xFFFFFFFFFFFFFFFFFFFFFFFFFFFFFFFFFFFFFFFF AND DUP2 PUSH20 0xFFFFFFFFFFFFFFFFFFFFFFFFFFFFFFFFFFFFFFFF AND EQ PUSH2 0xC30 JUMPI PUSH1 0x40 MLOAD PUSH32 0x8C379A000000000000000000000000000000000000000000000000000000000 DUP2 MSTORE PUSH1 0x4 ADD PUSH2 0xC27 SWAP1 PUSH2 0x1759 JUMP JUMPDEST PUSH1 0x40 MLOAD DUP1 SWAP2 SUB SWAP1 REVERT JUMPDEST DUP3 DUP3 PUSH1 0x3 ADD PUSH1 0x0 PUSH2 0x100 EXP DUP2 SLOAD DUP2 PUSH20 0xFFFFFFFFFFFFFFFFFFFFFFFFFFFFFFFFFFFFFFFF MUL NOT AND SWAP1 DUP4 PUSH20 0xFFFFFFFFFFFFFFFFFFFFFFFFFFFFFFFFFFFFFFFF AND MUL OR SWAP1 SSTORE POP DUP4 PUSH32 0x2231FC8BC2C20E26D85D66DC7F13A6B6D535C86D2A4D678BB2DE61F5B7136083 DUP3 DUP6 PUSH1 0x40 MLOAD PUSH2 0xCA5 SWAP3 SWAP2 SWAP1 PUSH2 0x1779 JUMP JUMPDEST PUSH1 0x40 MLOAD DUP1 SWAP2 SUB SWAP1 LOG2 POP POP POP POP JUMP JUMPDEST PUSH1 0x0 DUP2 PUSH1 0x40 MLOAD PUSH1 0x20 ADD PUSH2 0xCC6 SWAP2 SWAP1 PUSH2 0x17DE JUMP JUMPDEST PUSH1 0x40 MLOAD PUSH1 0x20 DUP2 DUP4 SUB SUB DUP2 MSTORE SWAP1 PUSH1 0x40 MSTORE DUP1 MLOAD SWAP1 PUSH1 0x20 ADD KECCAK256 DUP4 PUSH1 0x40 MLOAD PUSH1 0x20 ADD PUSH2 0xCED SWAP2 SWAP1 PUSH2 0x17DE JUMP JUMPDEST PUSH1 0x40 MLOAD PUSH1 0x20 DUP2 DUP4 SUB SUB DUP2 MSTORE SWAP1 PUSH1 0x40 MSTORE DUP1 MLOAD SWAP1 PUSH1 0x20 ADD KECCAK256 EQ SWAP1 POP SWAP3 SWAP2 POP POP JUMP JUMPDEST PUSH1 0x0 DUP2 SWAP1 POP SWAP2 SWAP1 POP JUMP JUMPDEST PUSH2 0xD1F DUP2 PUSH2 0xD0C JUMP JUMPDEST DUP3 MSTORE POP POP JUMP JUMPDEST PUSH1 0x0 PUSH1 0x20 DUP3 ADD SWAP1 POP PUSH2 0xD3A PUSH1 0x0 DUP4 ADD DUP5 PUSH2 0xD16 JUMP JUMPDEST SWAP3 SWAP2 POP POP JUMP JUMPDEST PUSH1 0x0 PUSH1 0x40 MLOAD SWAP1 POP SWAP1 JUMP JUMPDEST PUSH1 0x0 DUP1 REVERT JUMPDEST PUSH1 0x0 DUP1 REVERT JUMPDEST PUSH1 0x0 DUP1 REVERT JUMPDEST PUSH1 0x0 DUP1 REVERT JUMPDEST PUSH1 0x0 PUSH1 0x1F NOT PUSH1 0x1F DUP4 ADD AND SWAP1 POP SWAP2 SWAP1 POP JUMP JUMPDEST PUSH32 0x4E487B7100000000000000000000000000000000000000000000000000000000 PUSH1 0x0 MSTORE PUSH1 0x41 PUSH1 0x4 MSTORE PUSH1 0x24 PUSH1 0x0 REVERT JUMPDEST PUSH2 0xDA7 DUP3 PUSH2 0xD5E JUMP JUMPDEST DUP2 ADD DUP2 DUP2 LT PUSH8 0xFFFFFFFFFFFFFFFF DUP3 GT OR ISZERO PUSH2 0xDC6 JUMPI PUSH2 0xDC5 PUSH2 0xD6F JUMP JUMPDEST JUMPDEST DUP1 PUSH1 0x40 MSTORE POP POP POP JUMP JUMPDEST PUSH1 0x0 PUSH2 0xDD9 PUSH2 0xD40 JUMP JUMPDEST SWAP1 POP PUSH2 0xDE5 DUP3 DUP3 PUSH2 0xD9E JUMP JUMPDEST SWAP2 SWAP1 POP JUMP JUMPDEST PUSH1 0x0 PUSH8 0xFFFFFFFFFFFFFFFF DUP3 GT ISZERO PUSH2 0xE05 JUMPI PUSH2 0xE04 PUSH2 0xD6F JUMP JUMPDEST JUMPDEST PUSH2 0xE0E DUP3 PUSH2 0xD5E JUMP JUMPDEST SWAP1 POP PUSH1 0x20 DUP2 ADD SWAP1 POP SWAP2 SWAP1 POP JUMP JUMPDEST DUP3 DUP2 DUP4 CALLDATACOPY PUSH1 0x0 DUP4 DUP4 ADD MSTORE POP POP POP JUMP JUMPDEST PUSH1 0x0 PUSH2 0xE3D PUSH2 0xE38 DUP5 PUSH2 0xDEA JUMP JUMPDEST PUSH2 0xDCF JUMP JUMPDEST SWAP1 POP DUP3 DUP2 MSTORE PUSH1 0x20 DUP2 ADD DUP5 DUP5 DUP5 ADD GT ISZERO PUSH2 0xE59 JUMPI PUSH2 0xE58 PUSH2 0xD59 JUMP JUMPDEST JUMPDEST PUSH2 0xE64 DUP5 DUP3 DUP6 PUSH2 0xE1B JUMP JUMPDEST POP SWAP4 SWAP3 POP POP POP JUMP JUMPDEST PUSH1 0x0 DUP3 PUSH1 0x1F DUP4 ADD SLT PUSH2 0xE81 JUMPI PUSH2 0xE80 PUSH2 0xD54 JUMP JUMPDEST JUMPDEST DUP2 CALLDATALOAD PUSH2 0xE91 DUP5 DUP3 PUSH1 0x20 DUP7 ADD PUSH2 0xE2A JUMP JUMPDEST SWAP2 POP POP SWAP3 SWAP2 POP POP JUMP JUMPDEST PUSH1 0x0 DUP1 PUSH1 0x40 DUP4 DUP6 SUB SLT ISZERO PUSH2 0xEB1 JUMPI PUSH2 0xEB0 PUSH2 0xD4A JUMP JUMPDEST JUMPDEST PUSH1 0x0 DUP4 ADD CALLDATALOAD PUSH8 0xFFFFFFFFFFFFFFFF DUP2 GT ISZERO PUSH2 0xECF JUMPI PUSH2 0xECE PUSH2 0xD4F JUMP JUMPDEST JUMPDEST PUSH2 0xEDB DUP6 DUP3 DUP7 ADD PUSH2 0xE6C JUMP JUMPDEST SWAP3 POP POP PUSH1 0x20 DUP4 ADD CALLDATALOAD PUSH8 0xFFFFFFFFFFFFFFFF DUP2 GT ISZERO PUSH2 0xEFC JUMPI PUSH2 0xEFB PUSH2 0xD4F JUMP JUMPDEST JUMPDEST PUSH2 0xF08 DUP6 DUP3 DUP7 ADD PUSH2 0xE6C JUMP JUMPDEST SWAP2 POP POP SWAP3 POP SWAP3 SWAP1 POP JUMP JUMPDEST PUSH2 0xF1B DUP2 PUSH2 0xD0C JUMP JUMPDEST DUP2 EQ PUSH2 0xF26 JUMPI PUSH1 0x0 DUP1 REVERT JUMPDEST POP JUMP JUMPDEST PUSH1 0x0 DUP2 CALLDATALOAD SWAP1 POP PUSH2 0xF38 DUP2 PUSH2 0xF12 JUMP JUMPDEST SWAP3 SWAP2 POP POP JUMP JUMPDEST PUSH1 0x0 PUSH1 0x20 DUP3 DUP5 SUB SLT ISZERO PUSH2 0xF54 JUMPI PUSH2 0xF53 PUSH2 0xD4A JUMP JUMPDEST JUMPDEST PUSH1 0x0 PUSH2 0xF62 DUP5 DUP3 DUP6 ADD PUSH2 0xF29 JUMP JUMPDEST SWAP2 POP POP SWAP3 SWAP2 POP POP JUMP JUMPDEST PUSH1 0x0 DUP2 MLOAD SWAP1 POP SWAP2 SWAP1 POP JUMP JUMPDEST PUSH1 0x0 DUP3 DUP3 MSTORE PUSH1 0x20 DUP3 ADD SWAP1 POP SWAP3 SWAP2 POP POP JUMP JUMPDEST PUSH1 0x0 JUMPDEST DUP4 DUP2 LT ISZERO PUSH2 0xFA5 JUMPI DUP1 DUP3 ADD MLOAD DUP2 DUP5 ADD MSTORE PUSH1 0x20 DUP2 ADD SWAP1 POP PUSH2 0xF8A JUMP JUMPDEST PUSH1 0x0 DUP5 DUP5 ADD MSTORE POP POP POP POP JUMP JUMPDEST PUSH1 0x0 PUSH2 0xFBC DUP3 PUSH2 0xF6B JUMP JUMPDEST PUSH2 0xFC6 DUP2 DUP6 PUSH2 0xF76 JUMP JUMPDEST SWAP4 POP PUSH2 0xFD6 DUP2 DUP6 PUSH1 0x20 DUP7 ADD PUSH2 0xF87 JUMP JUMPDEST PUSH2 0xFDF DUP2 PUSH2 0xD5E JUMP JUMPDEST DUP5 ADD SWAP2 POP POP SWAP3 SWAP2 POP POP JUMP JUMPDEST PUSH1 0x0 PUSH1 0x60 DUP3 ADD SWAP1 POP DUP2 DUP2 SUB PUSH1 0x0 DUP4 ADD MSTORE PUSH2 0x1004 DUP2 DUP7 PUSH2 0xFB1 JUMP JUMPDEST SWAP1 POP DUP2 DUP2 SUB PUSH1 0x20 DUP4 ADD MSTORE PUSH2 0x1018 DUP2 DUP6 PUSH2 0xFB1 JUMP JUMPDEST SWAP1 POP DUP2 DUP2 SUB PUSH1 0x40 DUP4 ADD MSTORE PUSH2 0x102C DUP2 DUP5 PUSH2 0xFB1 JUMP JUMPDEST SWAP1 POP SWAP5 SWAP4 POP POP POP POP JUMP JUMPDEST PUSH1 0x0 PUSH20 0xFFFFFFFFFFFFFFFFFFFFFFFFFFFFFFFFFFFFFFFF DUP3 AND SWAP1 POP SWAP2 SWAP1 POP JUMP JUMPDEST PUSH1 0x0 PUSH2 0x1061 DUP3 PUSH2 0x1036 JUMP JUMPDEST SWAP1 POP SWAP2 SWAP1 POP JUMP JUMPDEST PUSH2 0x1071 DUP2 PUSH2 0x1056 JUMP JUMPDEST DUP2 EQ PUSH2 0x107C JUMPI PUSH1 0x0 DUP1 REVERT JUMPDEST POP JUMP JUMPDEST PUSH1 0x0 DUP2 CALLDATALOAD SWAP1 POP PUSH2 0x108E DUP2 PUSH2 0x1068 JUMP JUMPDEST SWAP3 SWAP2 POP POP JUMP JUMPDEST PUSH1 0x0 DUP1 PUSH1 0x0 DUP1 PUSH1 0x80 DUP6 DUP8 SUB SLT ISZERO PUSH2 0x10AE JUMPI PUSH2 0x10AD PUSH2 0xD4A JUMP JUMPDEST JUMPDEST PUSH1 0x0 DUP6 ADD CALLDATALOAD PUSH8 0xFFFFFFFFFFFFFFFF DUP2 GT ISZERO PUSH2 0x10CC JUMPI PUSH2 0x10CB PUSH2 0xD4F JUMP JUMPDEST JUMPDEST PUSH2 0x10D8 DUP8 DUP3 DUP9 ADD PUSH2 0xE6C JUMP JUMPDEST SWAP5 POP POP PUSH1 0x20 DUP6 ADD CALLDATALOAD PUSH8 0xFFFFFFFFFFFFFFFF DUP2 GT ISZERO PUSH2 0x10F9 JUMPI PUSH2 0x10F8 PUSH2 0xD4F JUMP JUMPDEST JUMPDEST PUSH2 0x1105 DUP8 DUP3 DUP9 ADD PUSH2 0xE6C JUMP JUMPDEST SWAP4 POP POP PUSH1 0x40 PUSH2 0x1116 DUP8 DUP3 DUP9 ADD PUSH2 0xF29 JUMP JUMPDEST SWAP3 POP POP PUSH1 0x60 PUSH2 0x1127 DUP8 DUP3 DUP9 ADD PUSH2 0x107F JUMP JUMPDEST SWAP2 POP POP SWAP3 SWAP6 SWAP2 SWAP5 POP SWAP3 POP JUMP JUMPDEST PUSH1 0x0 DUP1 PUSH1 0x0 PUSH1 0x60 DUP5 DUP7 SUB SLT ISZERO PUSH2 0x114C JUMPI PUSH2 0x114B PUSH2 0xD4A JUMP JUMPDEST JUMPDEST PUSH1 0x0 DUP5 ADD CALLDATALOAD PUSH8 0xFFFFFFFFFFFFFFFF DUP2 GT ISZERO PUSH2 0x116A JUMPI PUSH2 0x1169 PUSH2 0xD4F JUMP JUMPDEST JUMPDEST PUSH2 0x1176 DUP7 DUP3 DUP8 ADD PUSH2 0xE6C JUMP JUMPDEST SWAP4 POP POP PUSH1 0x20 DUP5 ADD CALLDATALOAD PUSH8 0xFFFFFFFFFFFFFFFF DUP2 GT ISZERO PUSH2 0x1197 JUMPI PUSH2 0x1196 PUSH2 0xD4F JUMP JUMPDEST JUMPDEST PUSH2 0x11A3 DUP7 DUP3 DUP8 ADD PUSH2 0xE6C JUMP JUMPDEST SWAP3 POP POP PUSH1 0x40 DUP5 ADD CALLDATALOAD PUSH8 0xFFFFFFFFFFFFFFFF DUP2 GT ISZERO PUSH2 0x11C4 JUMPI PUSH2 0x11C3 PUSH2 0xD4F JUMP JUMPDEST JUMPDEST PUSH2 0x11D0 DUP7 DUP3 DUP8 ADD PUSH2 0xE6C JUMP JUMPDEST SWAP2 POP POP SWAP3 POP SWAP3 POP SWAP3 JUMP JUMPDEST PUSH2 0x11E3 DUP2 PUSH2 0x1056 JUMP JUMPDEST DUP3 MSTORE POP POP JUMP JUMPDEST PUSH1 0x0 PUSH1 0x80 DUP3 ADD SWAP1 POP DUP2 DUP2 SUB PUSH1 0x0 DUP4 ADD MSTORE PUSH2 0x1203 DUP2 DUP8 PUSH2 0xFB1 JUMP JUMPDEST SWAP1 POP DUP2 DUP2 SUB PUSH1 0x20 DUP4 ADD MSTORE PUSH2 0x1217 DUP2 DUP7 PUSH2 0xFB1 JUMP JUMPDEST SWAP1 POP PUSH2 0x1226 PUSH1 0x40 DUP4 ADD DUP6 PUSH2 0xD16 JUMP JUMPDEST PUSH2 0x1233 PUSH1 0x60 DUP4 ADD DUP5 PUSH2 0x11DA JUMP JUMPDEST SWAP6 SWAP5 POP POP POP POP POP JUMP JUMPDEST PUSH1 0x0 DUP1 PUSH1 0x40 DUP4 DUP6 SUB SLT ISZERO PUSH2 0x1253 JUMPI PUSH2 0x1252 PUSH2 0xD4A JUMP JUMPDEST JUMPDEST PUSH1 0x0 PUSH2 0x1261 DUP6 DUP3 DUP7 ADD PUSH2 0xF29 JUMP JUMPDEST SWAP3 POP POP PUSH1 0x20 PUSH2 0x1272 DUP6 DUP3 DUP7 ADD PUSH2 0x107F JUMP JUMPDEST SWAP2 POP POP SWAP3 POP SWAP3 SWAP1 POP JUMP JUMPDEST PUSH32 0x4E487B7100000000000000000000000000000000000000000000000000000000 PUSH1 0x0 MSTORE PUSH1 0x22 PUSH1 0x4 MSTORE PUSH1 0x24 PUSH1 0x0 REVERT JUMPDEST PUSH1 0x0 PUSH1 0x2 DUP3 DIV SWAP1 POP PUSH1 0x1 DUP3 AND DUP1 PUSH2 0x12C3 JUMPI PUSH1 0x7F DUP3 AND SWAP2 POP JUMPDEST PUSH1 0x20 DUP3 LT DUP2 SUB PUSH2 0x12D6 JUMPI PUSH2 0x12D5 PUSH2 0x127C JUMP JUMPDEST JUMPDEST POP SWAP2 SWAP1 POP JUMP JUMPDEST PUSH32 0x4E487B7100000000000000000000000000000000000000000000000000000000 PUSH1 0x0 MSTORE PUSH1 0x11 PUSH1 0x4 MSTORE PUSH1 0x24 PUSH1 0x0 REVERT JUMPDEST PUSH1 0x0 PUSH2 0x1316 DUP3 PUSH2 0xD0C JUMP JUMPDEST SWAP2 POP PUSH32 0xFFFFFFFFFFFFFFFFFFFFFFFFFFFFFFFFFFFFFFFFFFFFFFFFFFFFFFFFFFFFFFFF DUP3 SUB PUSH2 0x1348 JUMPI PUSH2 0x1347 PUSH2 0x12DC JUMP JUMPDEST JUMPDEST PUSH1 0x1 DUP3 ADD SWAP1 POP SWAP2 SWAP1 POP JUMP JUMPDEST PUSH1 0x0 PUSH1 0x60 DUP3 ADD SWAP1 POP DUP2 DUP2 SUB PUSH1 0x0 DUP4 ADD MSTORE PUSH2 0x136D DUP2 DUP7 PUSH2 0xFB1 JUMP JUMPDEST SWAP1 POP PUSH2 0x137C PUSH1 0x20 DUP4 ADD DUP6 PUSH2 0xD16 JUMP JUMPDEST PUSH2 0x1389 PUSH1 0x40 DUP4 ADD DUP5 PUSH2 0xD16 JUMP JUMPDEST SWAP5 SWAP4 POP POP POP POP JUMP JUMPDEST PUSH1 0x0 DUP2 SWAP1 POP DUP2 PUSH1 0x0 MSTORE PUSH1 0x20 PUSH1 0x0 KECCAK256 SWAP1 POP SWAP2 SWAP1 POP JUMP JUMPDEST PUSH1 0x0 PUSH1 0x20 PUSH1 0x1F DUP4 ADD DIV SWAP1 POP SWAP2 SWAP1 POP JUMP JUMPDEST PUSH1 0x0 DUP3 DUP3 SHL SWAP1 POP SWAP3 SWAP2 POP POP JUMP JUMPDEST PUSH1 0x0 PUSH1 0x8 DUP4 MUL PUSH2 0x13F3 PUSH32 0xFFFFFFFFFFFFFFFFFFFFFFFFFFFFFFFFFFFFFFFFFFFFFFFFFFFFFFFFFFFFFFFF DUP3 PUSH2 0x13B6 JUMP JUMPDEST PUSH2 0x13FD DUP7 DUP4 PUSH2 0x13B6 JUMP JUMPDEST SWAP6 POP DUP1 NOT DUP5 AND SWAP4 POP DUP1 DUP7 AND DUP5 OR SWAP3 POP POP POP SWAP4 SWAP3 POP POP POP JUMP JUMPDEST PUSH1 0x0 DUP2 SWAP1 POP SWAP2 SWAP1 POP JUMP JUMPDEST PUSH1 0x0 PUSH2 0x143A PUSH2 0x1435 PUSH2 0x1430 DUP5 PUSH2 0xD0C JUMP JUMPDEST PUSH2 0x1415 JUMP JUMPDEST PUSH2 0xD0C JUMP JUMPDEST SWAP1 POP SWAP2 SWAP1 POP JUMP JUMPDEST PUSH1 0x0 DUP2 SWAP1 POP SWAP2 SWAP1 POP JUMP JUMPDEST PUSH2 0x1454 DUP4 PUSH2 0x141F JUMP JUMPDEST PUSH2 0x1468 PUSH2 0x1460 DUP3 PUSH2 0x1441 JUMP JUMPDEST DUP5 DUP5 SLOAD PUSH2 0x13C3 JUMP JUMPDEST DUP3 SSTORE POP POP POP POP JUMP JUMPDEST PUSH1 0x0 SWAP1 JUMP JUMPDEST PUSH2 0x147D PUSH2 0x1470 JUMP JUMPDEST PUSH2 0x1488 DUP2 DUP5 DUP5 PUSH2 0x144B JUMP JUMPDEST POP POP POP JUMP JUMPDEST JUMPDEST DUP2 DUP2 LT ISZERO PUSH2 0x14AC JUMPI PUSH2 0x14A1 PUSH1 0x0 DUP3 PUSH2 0x1475 JUMP JUMPDEST PUSH1 0x1 DUP2 ADD SWAP1 POP PUSH2 0x148E JUMP JUMPDEST POP POP JUMP JUMPDEST PUSH1 0x1F DUP3 GT ISZERO PUSH2 0x14F1 JUMPI PUSH2 0x14C2 DUP2 PUSH2 0x1391 JUMP JUMPDEST PUSH2 0x14CB DUP5 PUSH2 0x13A6 JUMP JUMPDEST DUP2 ADD PUSH1 0x20 DUP6 LT ISZERO PUSH2 0x14DA JUMPI DUP2 SWAP1 POP JUMPDEST PUSH2 0x14EE PUSH2 0x14E6 DUP6 PUSH2 0x13A6 JUMP JUMPDEST DUP4 ADD DUP3 PUSH2 0x148D JUMP JUMPDEST POP POP JUMPDEST POP POP POP JUMP JUMPDEST PUSH1 0x0 DUP3 DUP3 SHR SWAP1 POP SWAP3 SWAP2 POP POP JUMP JUMPDEST PUSH1 0x0 PUSH2 0x1514 PUSH1 0x0 NOT DUP5 PUSH1 0x8 MUL PUSH2 0x14F6 JUMP JUMPDEST NOT DUP1 DUP4 AND SWAP2 POP POP SWAP3 SWAP2 POP POP JUMP JUMPDEST PUSH1 0x0 PUSH2 0x152D DUP4 DUP4 PUSH2 0x1503 JUMP JUMPDEST SWAP2 POP DUP3 PUSH1 0x2 MUL DUP3 OR SWAP1 POP SWAP3 SWAP2 POP POP JUMP JUMPDEST PUSH2 0x1546 DUP3 PUSH2 0xF6B JUMP JUMPDEST PUSH8 0xFFFFFFFFFFFFFFFF DUP2 GT ISZERO PUSH2 0x155F JUMPI PUSH2 0x155E PUSH2 0xD6F JUMP JUMPDEST JUMPDEST PUSH2 0x1569 DUP3 SLOAD PUSH2 0x12AB JUMP JUMPDEST PUSH2 0x1574 DUP3 DUP3 DUP6 PUSH2 0x14B0 JUMP JUMPDEST PUSH1 0x0 PUSH1 0x20 SWAP1 POP PUSH1 0x1F DUP4 GT PUSH1 0x1 DUP2 EQ PUSH2 0x15A7 JUMPI PUSH1 0x0 DUP5 ISZERO PUSH2 0x1595 JUMPI DUP3 DUP8 ADD MLOAD SWAP1 POP JUMPDEST PUSH2 0x159F DUP6 DUP3 PUSH2 0x1521 JUMP JUMPDEST DUP7 SSTORE POP PUSH2 0x1607 JUMP JUMPDEST PUSH1 0x1F NOT DUP5 AND PUSH2 0x15B5 DUP7 PUSH2 0x1391 JUMP JUMPDEST PUSH1 0x0 JUMPDEST DUP3 DUP2 LT ISZERO PUSH2 0x15DD JUMPI DUP5 DUP10 ADD MLOAD DUP3 SSTORE PUSH1 0x1 DUP3 ADD SWAP2 POP PUSH1 0x20 DUP6 ADD SWAP5 POP PUSH1 0x20 DUP2 ADD SWAP1 POP PUSH2 0x15B8 JUMP JUMPDEST DUP7 DUP4 LT ISZERO PUSH2 0x15FA JUMPI DUP5 DUP10 ADD MLOAD PUSH2 0x15F6 PUSH1 0x1F DUP10 AND DUP3 PUSH2 0x1503 JUMP JUMPDEST DUP4 SSTORE POP JUMPDEST PUSH1 0x1 PUSH1 0x2 DUP9 MUL ADD DUP9 SSTORE POP POP POP JUMPDEST POP POP POP POP POP POP JUMP JUMPDEST PUSH32 0x496E76616C6964206C616E642049440000000000000000000000000000000000 PUSH1 0x0 DUP3 ADD MSTORE POP JUMP JUMPDEST PUSH1 0x0 PUSH2 0x1645 PUSH1 0xF DUP4 PUSH2 0xF76 JUMP JUMPDEST SWAP2 POP PUSH2 0x1650 DUP3 PUSH2 0x160F JUMP JUMPDEST PUSH1 0x20 DUP3 ADD SWAP1 POP SWAP2 SWAP1 POP JUMP JUMPDEST PUSH1 0x0 PUSH1 0x20 DUP3 ADD SWAP1 POP DUP2 DUP2 SUB PUSH1 0x0 DUP4 ADD MSTORE PUSH2 0x1674 DUP2 PUSH2 0x1638 JUMP JUMPDEST SWAP1 POP SWAP2 SWAP1 POP JUMP JUMPDEST PUSH32 0x496E76616C69642070726F706572747920494400000000000000000000000000 PUSH1 0x0 DUP3 ADD MSTORE POP JUMP JUMPDEST PUSH1 0x0 PUSH2 0x16B1 PUSH1 0x13 DUP4 PUSH2 0xF76 JUMP JUMPDEST SWAP2 POP PUSH2 0x16BC DUP3 PUSH2 0x167B JUMP JUMPDEST PUSH1 0x20 DUP3 ADD SWAP1 POP SWAP2 SWAP1 POP JUMP JUMPDEST PUSH1 0x0 PUSH1 0x20 DUP3 ADD SWAP1 POP DUP2 DUP2 SUB PUSH1 0x0 DUP4 ADD MSTORE PUSH2 0x16E0 DUP2 PUSH2 0x16A4 JUMP JUMPDEST SWAP1 POP SWAP2 SWAP1 POP JUMP JUMPDEST PUSH32 0x596F7520617265206E6F7420746865206F776E6572206F662074686973207072 PUSH1 0x0 DUP3 ADD MSTORE PUSH32 0x6F70657274790000000000000000000000000000000000000000000000000000 PUSH1 0x20 DUP3 ADD MSTORE POP JUMP JUMPDEST PUSH1 0x0 PUSH2 0x1743 PUSH1 0x26 DUP4 PUSH2 0xF76 JUMP JUMPDEST SWAP2 POP PUSH2 0x174E DUP3 PUSH2 0x16E7 JUMP JUMPDEST PUSH1 0x40 DUP3 ADD SWAP1 POP SWAP2 SWAP1 POP JUMP JUMPDEST PUSH1 0x0 PUSH1 0x20 DUP3 ADD SWAP1 POP DUP2 DUP2 SUB PUSH1 0x0 DUP4 ADD MSTORE PUSH2 0x1772 DUP2 PUSH2 0x1736 JUMP JUMPDEST SWAP1 POP SWAP2 SWAP1 POP JUMP JUMPDEST PUSH1 0x0 PUSH1 0x40 DUP3 ADD SWAP1 POP PUSH2 0x178E PUSH1 0x0 DUP4 ADD DUP6 PUSH2 0x11DA JUMP JUMPDEST PUSH2 0x179B PUSH1 0x20 DUP4 ADD DUP5 PUSH2 0x11DA JUMP JUMPDEST SWAP4 SWAP3 POP POP POP JUMP JUMPDEST PUSH1 0x0 DUP2 SWAP1 POP SWAP3 SWAP2 POP POP JUMP JUMPDEST PUSH1 0x0 PUSH2 0x17B8 DUP3 PUSH2 0xF6B JUMP JUMPDEST PUSH2 0x17C2 DUP2 DUP6 PUSH2 0x17A2 JUMP JUMPDEST SWAP4 POP PUSH2 0x17D2 DUP2 DUP6 PUSH1 0x20 DUP7 ADD PUSH2 0xF87 JUMP JUMPDEST DUP1 DUP5 ADD SWAP2 POP POP SWAP3 SWAP2 POP POP JUMP JUMPDEST PUSH1 0x0 PUSH2 0x17EA DUP3 DUP5 PUSH2 0x17AD JUMP JUMPDEST SWAP2 POP DUP2 SWAP1 POP SWAP3 SWAP2 POP POP JUMP INVALID LOG2 PUSH5 0x6970667358 0x22 SLT KECCAK256 ADD EQ 0x22 0xA9 0xD9 0x2C 0xD7 0xAA DUP3 EXTCODEHASH 0xE4 SWAP5 0xCB 0x5E 0xE0 0x5F SWAP4 DUP13 SELFBALANCE PUSH19 0x4F5F7794399B56CAB1A7F75064736F6C634300 ADDMOD SLT STOP CALLER "},"methodIdentifiers":{"addLandmark(string,string,string)":"a67f5d17","addProperty(string,string,uint256,address)":"3db406d2","getLandInfo(uint256)":"6f6f9bef","landmarks(uint256)":"2d43573d","properties(uint256)":"f7b10808","searchLand(string,string)":"1f1bad1d","totalLandmarks()":"4c722cdc","totalProperties()":"0b3bce20","transferProperty(uint256,address)":"ff356237"}}}}}