{
  "_format": "hh-sol-artifact-1",
  "contractName": "LandRegistry",
  "sourceName": "contracts/LandRegistry.sol",
  "abi": [
    {
      "anonymous": false,
      "inputs": [
        {
          "indexed": false,
          "internalType": "string",
          "name": "name",
          "type": "string"
        },
        {
          "indexed": false,
          "internalType": "uint256",
          "name": "oldPrice",
          "type": "uint256"
        },
        {
          "indexed": false,
          "internalType": "uint256",
          "name": "newPrice",
          "type": "uint256"
        }
      ],
      "name": "DifferentPriceAlert",
      "type": "event"
    },
    {
      "anonymous": false,
      "inputs": [
        {
          "indexed": true,
          "internalType": "uint256",
          "name": "landmarkId",
          "type": "uint256"
        },
        {
          "indexed": false,
          "internalType": "string",
          "name": "name",
          "type": "string"
        },
        {
          "indexed": false,
          "internalType": "string",
          "name": "location",
          "type": "string"
        },
        {
          "indexed": false,
          "internalType": "string",
          "name": "description",
          "type": "string"
        }
      ],
      "name": "LandmarkAdded",
      "type": "event"
    },
    {
      "anonymous": false,
      "inputs": [
        {
          "indexed": true,
          "internalType": "uint256",
          "name": "propertyId",
          "type": "uint256"
        },
        {
          "indexed": false,
          "internalType": "string",
          "name": "name",
          "type": "string"
        },
        {
          "indexed": false,
          "internalType": "string",
          "name": "location",
          "type": "string"
        },
        {
          "indexed": false,
          "internalType": "uint256",
          "name": "price",
          "type": "uint256"
        },
        {
          "indexed": false,
          "internalType": "address",
          "name": "owner",
          "type": "address"
        }
      ],
      "name": "PropertyAdded",
      "type": "event"
    },
    {
      "anonymous": false,
      "inputs": [
        {
          "indexed": true,
          "internalType": "uint256",
          "name": "propertyId",
          "type": "uint256"
        },
        {
          "indexed": false,
          "internalType": "address",
          "name": "oldOwner",
          "type": "address"
        },
        {
          "indexed": false,
          "internalType": "address",
          "name": "newOwner",
          "type": "address"
        }
      ],
      "name": "PropertyTransferred",
      "type": "event"
    },
    {
      "inputs": [
        {
          "internalType": "string",
          "name": "_name",
          "type": "string"
        },
        {
          "internalType": "string",
          "name": "_location",
          "type": "string"
        },
        {
          "internalType": "string",
          "name": "_description",
          "type": "string"
        }
      ],
      "name": "addLandmark",
      "outputs": [],
      "stateMutability": "nonpayable",
      "type": "function"
    },
    {
      "inputs": [
        {
          "internalType": "string",
          "name": "_name",
          "type": "string"
        },
        {
          "internalType": "string",
          "name": "_location",
          "type": "string"
        },
        {
          "internalType": "uint256",
          "name": "_price",
          "type": "uint256"
        },
        {
          "internalType": "address",
          "name": "_owner",
          "type": "address"
        }
      ],
      "name": "addProperty",
      "outputs": [],
      "stateMutability": "nonpayable",
      "type": "function"
    },
    {
      "inputs": [
        {
          "internalType": "uint256",
          "name": "_landId",
          "type": "uint256"
        }
      ],
      "name": "getLandInfo",
      "outputs": [
        {
          "internalType": "string",
          "name": "",
          "type": "string"
        },
        {
          "internalType": "string",
          "name": "",
          "type": "string"
        },
        {
          "internalType": "string",
          "name": "",
          "type": "string"
        }
      ],
      "stateMutability": "view",
      "type": "function"
    },
    {
      "inputs": [
        {
          "internalType": "uint256",
          "name": "",
          "type": "uint256"
        }
      ],
      "name": "landmarks",
      "outputs": [
        {
          "internalType": "string",
          "name": "name",
          "type": "string"
        },
        {
          "internalType": "string",
          "name": "location",
          "type": "string"
        },
        {
          "internalType": "string",
          "name": "description",
          "type": "string"
        }
      ],
      "stateMutability": "view",
      "type": "function"
    },
    {
      "inputs": [
        {
          "internalType": "uint256",
          "name": "",
          "type": "uint256"
        }
      ],
      "name": "properties",
      "outputs": [
        {
          "internalType": "string",
          "name": "name",
          "type": "string"
        },
        {
          "internalType": "string",
          "name": "location",
          "type": "string"
        },
        {
          "internalType": "uint256",
          "name": "price",
          "type": "uint256"
        },
        {
          "internalType": "address",
          "name": "owner",
          "type": "address"
        }
      ],
      "stateMutability": "view",
      "type": "function"
    },
    {
      "inputs": [
        {
          "internalType": "string",
          "name": "_name",
          "type": "string"
        },
        {
          "internalType": "string",
          "name": "_location",
          "type": "string"
        }
      ],
      "name": "searchLand",
      "outputs": [
        {
          "internalType": "uint256",
          "name": "",
          "type": "uint256"
        }
      ],
      "stateMutability": "view",
      "type": "function"
    },
    {
      "inputs": [],
      "name": "totalLandmarks",
      "outputs": [
        {
          "internalType": "uint256",
          "name": "",
          "type": "uint256"
        }
      ],
      "stateMutability": "view",
      "type": "function"
    },
    {
      "inputs": [],
      "name": "totalProperties",
      "outputs": [
        {
          "internalType": "uint256",
          "name": "",
          "type": "uint256"
        }
      ],
      "stateMutability": "view",
      "type": "function"
    },
    {
      "inputs": [
        {
          "internalType": "uint256",
          "name": "_propertyId",
          "type": "uint256"
        },
        {
          "internalType": "address",
          "name": "_newOwner",
          "type": "address"
        }
      ],
      "name": "transferProperty",
      "outputs": [],
      "stateMutability": "nonpayable",
      "type": "function"
    }
  ],
  "bytecode": "0x608060405234801561001057600080fd5b5061182b806100206000396000f3fe608060405234801561001057600080fd5b50600436106100935760003560e01c80634c722cdc116100665780634c722cdc146101345780636f6f9bef14610152578063a67f5d1714610184578063f7b10808146101a0578063ff356237146101d357610093565b80630b3bce20146100985780631f1bad1d146100b65780632d43573d146100e65780633db406d214610118575b600080fd5b6100a06101ef565b6040516100ad9190610d25565b60405180910390f35b6100d060048036038101906100cb9190610e9a565b6101f5565b6040516100dd9190610d25565b60405180910390f35b61010060048036038101906100fb9190610f3e565b610380565b60405161010f93929190610fea565b60405180910390f35b610132600480360381019061012d9190611094565b610542565b005b61013c6106da565b6040516101499190610d25565b60405180910390f35b61016c60048036038101906101679190610f3e565b6106e0565b60405161017b93929190610fea565b60405180910390f35b61019e60048036038101906101999190611133565b61090b565b005b6101ba60048036038101906101b59190610f3e565b6109df565b6040516101ca94939291906111e9565b60405180910390f35b6101ed60048036038101906101e8919061123c565b610b3f565b005b60025481565b600080600090505b60025481101561037457600080600083815260200190815260200160002090506102b381600001805461022f906112ab565b80601f016020809104026020016040519081016040528092919081815260200182805461025b906112ab565b80156102a85780601f1061027d576101008083540402835291602001916102a8565b820191906000526020600020905b81548152906001019060200180831161028b57829003601f168201915b505050505086610cb3565b801561035157506103508160010180546102cc906112ab565b80601f01602080910402602001604051908101604052809291908181526020018280546102f8906112ab565b80156103455780601f1061031a57610100808354040283529160200191610345565b820191906000526020600020905b81548152906001019060200180831161032857829003601f168201915b505050505085610cb3565b5b1561036057819250505061037a565b50808061036c9061130b565b9150506101fd565b50600090505b92915050565b60016020528060005260406000206000915090508060000180546103a3906112ab565b80601f01602080910402602001604051908101604052809291908181526020018280546103cf906112ab565b801561041c5780601f106103f15761010080835404028352916020019161041c565b820191906000526020600020905b8154815290600101906020018083116103ff57829003601f168201915b505050505090806001018054610431906112ab565b80601f016020809104026020016040519081016040528092919081815260200182805461045d906112ab565b80156104aa5780601f1061047f576101008083540402835291602001916104aa565b820191906000526020600020905b81548152906001019060200180831161048d57829003601f168201915b5050505050908060020180546104bf906112ab565b80601f01602080910402602001604051908101604052809291908181526020018280546104eb906112ab565b80156105385780601f1061050d57610100808354040283529160200191610538565b820191906000526020600020905b81548152906001019060200180831161051b57829003601f168201915b5050505050905083565b60006002549050600080600061055888886101f5565b81526020019081526020016000209050838160020154146105b3577fc4ce14cea2537cbe6db0cd59ae23e6829bc7d03e4c7b612d33cbffdbd01173b8868260020154866040516105aa93929190611353565b60405180910390a15b60405180608001604052808781526020018681526020018581526020018473ffffffffffffffffffffffffffffffffffffffff168152506000808481526020019081526020016000206000820151816000019081610611919061153d565b506020820151816001019081610627919061153d565b506040820151816002015560608201518160030160006101000a81548173ffffffffffffffffffffffffffffffffffffffff021916908373ffffffffffffffffffffffffffffffffffffffff1602179055509050506002600081548092919061068f9061130b565b9190505550817f42d9efe534a99ea432c00737b71473649c4c7c334307bcbab9913f64ecd970dd878787876040516106ca94939291906111e9565b60405180910390a2505050505050565b60035481565b60608060606000841180156106f757506003548411155b610736576040517f08c379a000000000000000000000000000000000000000000000000000000000815260040161072d9061165b565b60405180910390fd5b6000600160008681526020019081526020016000209050806000018160010182600201828054610765906112ab565b80601f0160208091040260200160405190810160405280929190818152602001828054610791906112ab565b80156107de5780601f106107b3576101008083540402835291602001916107de565b820191906000526020600020905b8154815290600101906020018083116107c157829003601f168201915b505050505092508180546107f1906112ab565b80601f016020809104026020016040519081016040528092919081815260200182805461081d906112ab565b801561086a5780601f1061083f5761010080835404028352916020019161086a565b820191906000526020600020905b81548152906001019060200180831161084d57829003601f168201915b5050505050915080805461087d906112ab565b80601f01602080910402602001604051908101604052809291908181526020018280546108a9906112ab565b80156108f65780601f106108cb576101008083540402835291602001916108f6565b820191906000526020600020905b8154815290600101906020018083116108d957829003601f168201915b50505050509050935093509350509193909250565b60006003549050604051806060016040528085815260200184815260200183815250600160008381526020019081526020016000206000820151816000019081610955919061153d565b50602082015181600101908161096b919061153d565b506040820151816002019081610981919061153d565b50905050600360008154809291906109989061130b565b9190505550807f6e22041b7b866dc299e6d0f7764c5cc72008a74f154f177256e1bf36679fb0e78585856040516109d193929190610fea565b60405180910390a250505050565b6000602052806000526040600020600091509050806000018054610a02906112ab565b80601f0160208091040260200160405190810160405280929190818152602001828054610a2e906112ab565b8015610a7b5780601f10610a5057610100808354040283529160200191610a7b565b820191906000526020600020905b815481529060010190602001808311610a5e57829003601f168201915b505050505090806001018054610a90906112ab565b80601f0160208091040260200160405190810160405280929190818152602001828054610abc906112ab565b8015610b095780601f10610ade57610100808354040283529160200191610b09565b820191906000526020600020905b815481529060010190602001808311610aec57829003601f168201915b5050505050908060020154908060030160009054906101000a900473ffffffffffffffffffffffffffffffffffffffff16905084565b6002548210610b83576040517f08c379a0000000000000000000000000000000000000000000000000000000008152600401610b7a906116c7565b60405180910390fd5b6000806000848152602001908152602001600020905060008160030160009054906101000a900473ffffffffffffffffffffffffffffffffffffffff1690503373ffffffffffffffffffffffffffffffffffffffff168173ffffffffffffffffffffffffffffffffffffffff1614610c30576040517f08c379a0000000000000000000000000000000000000000000000000000000008152600401610c2790611759565b60405180910390fd5b828260030160006101000a81548173ffffffffffffffffffffffffffffffffffffffff021916908373ffffffffffffffffffffffffffffffffffffffff160217905550837f2231fc8bc2c20e26d85d66dc7f13a6b6d535c86d2a4d678bb2de61f5b71360838285604051610ca5929190611779565b60405180910390a250505050565b600081604051602001610cc691906117de565b6040516020818303038152906040528051906020012083604051602001610ced91906117de565b6040516020818303038152906040528051906020012014905092915050565b6000819050919050565b610d1f81610d0c565b82525050565b6000602082019050610d3a6000830184610d16565b92915050565b6000604051905090565b600080fd5b600080fd5b600080fd5b600080fd5b6000601f19601f8301169050919050565b7f4e487b7100000000000000000000000000000000000000000000000000000000600052604160045260246000fd5b610da782610d5e565b810181811067ffffffffffffffff82111715610dc657610dc5610d6f565b5b80604052505050565b6000610dd9610d40565b9050610de58282610d9e565b919050565b600067ffffffffffffffff821115610e0557610e04610d6f565b5b610e0e82610d5e565b9050602081019050919050565b82818337600083830152505050565b6000610e3d610e3884610dea565b610dcf565b905082815260208101848484011115610e5957610e58610d59565b5b610e64848285610e1b565b509392505050565b600082601f830112610e8157610e80610d54565b5b8135610e91848260208601610e2a565b91505092915050565b60008060408385031215610eb157610eb0610d4a565b5b600083013567ffffffffffffffff811115610ecf57610ece610d4f565b5b610edb85828601610e6c565b925050602083013567ffffffffffffffff811115610efc57610efb610d4f565b5b610f0885828601610e6c565b9150509250929050565b610f1b81610d0c565b8114610f2657600080fd5b50565b600081359050610f3881610f12565b92915050565b600060208284031215610f5457610f53610d4a565b5b6000610f6284828501610f29565b91505092915050565b600081519050919050565b600082825260208201905092915050565b60005b83811015610fa5578082015181840152602081019050610f8a565b60008484015250505050565b6000610fbc82610f6b565b610fc68185610f76565b9350610fd6818560208601610f87565b610fdf81610d5e565b840191505092915050565b600060608201905081810360008301526110048186610fb1565b905081810360208301526110188185610fb1565b9050818103604083015261102c8184610fb1565b9050949350505050565b600073ffffffffffffffffffffffffffffffffffffffff82169050919050565b600061106182611036565b9050919050565b61107181611056565b811461107c57600080fd5b50565b60008135905061108e81611068565b92915050565b600080600080608085870312156110ae576110ad610d4a565b5b600085013567ffffffffffffffff8111156110cc576110cb610d4f565b5b6110d887828801610e6c565b945050602085013567ffffffffffffffff8111156110f9576110f8610d4f565b5b61110587828801610e6c565b935050604061111687828801610f29565b92505060606111278782880161107f565b91505092959194509250565b60008060006060848603121561114c5761114b610d4a565b5b600084013567ffffffffffffffff81111561116a57611169610d4f565b5b61117686828701610e6c565b935050602084013567ffffffffffffffff81111561119757611196610d4f565b5b6111a386828701610e6c565b925050604084013567ffffffffffffffff8111156111c4576111c3610d4f565b5b6111d086828701610e6c565b9150509250925092565b6111e381611056565b82525050565b600060808201905081810360008301526112038187610fb1565b905081810360208301526112178186610fb1565b90506112266040830185610d16565b61123360608301846111da565b95945050505050565b6000806040838503121561125357611252610d4a565b5b600061126185828601610f29565b92505060206112728582860161107f565b9150509250929050565b7f4e487b7100000000000000000000000000000000000000000000000000000000600052602260045260246000fd5b600060028204905060018216806112c357607f821691505b6020821081036112d6576112d561127c565b5b50919050565b7f4e487b7100000000000000000000000000000000000000000000000000000000600052601160045260246000fd5b600061131682610d0c565b91507fffffffffffffffffffffffffffffffffffffffffffffffffffffffffffffffff8203611348576113476112dc565b5b600182019050919050565b6000606082019050818103600083015261136d8186610fb1565b905061137c6020830185610d16565b6113896040830184610d16565b949350505050565b60008190508160005260206000209050919050565b60006020601f8301049050919050565b600082821b905092915050565b6000600883026113f37fffffffffffffffffffffffffffffffffffffffffffffffffffffffffffffffff826113b6565b6113fd86836113b6565b95508019841693508086168417925050509392505050565b6000819050919050565b600061143a61143561143084610d0c565b611415565b610d0c565b9050919050565b6000819050919050565b6114548361141f565b61146861146082611441565b8484546113c3565b825550505050565b600090565b61147d611470565b61148881848461144b565b505050565b5b818110156114ac576114a1600082611475565b60018101905061148e565b5050565b601f8211156114f1576114c281611391565b6114cb846113a6565b810160208510156114da578190505b6114ee6114e6856113a6565b83018261148d565b50505b505050565b600082821c905092915050565b6000611514600019846008026114f6565b1980831691505092915050565b600061152d8383611503565b9150826002028217905092915050565b61154682610f6b565b67ffffffffffffffff81111561155f5761155e610d6f565b5b61156982546112ab565b6115748282856114b0565b600060209050601f8311600181146115a75760008415611595578287015190505b61159f8582611521565b865550611607565b601f1984166115b586611391565b60005b828110156115dd578489015182556001820191506020850194506020810190506115b8565b868310156115fa57848901516115f6601f891682611503565b8355505b6001600288020188555050505b505050505050565b7f496e76616c6964206c616e642049440000000000000000000000000000000000600082015250565b6000611645600f83610f76565b91506116508261160f565b602082019050919050565b6000602082019050818103600083015261167481611638565b9050919050565b7f496e76616c69642070726f706572747920494400000000000000000000000000600082015250565b60006116b1601383610f76565b91506116bc8261167b565b602082019050919050565b600060208201905081810360008301526116e0816116a4565b9050919050565b7f596f7520617265206e6f7420746865206f776e6572206f66207468697320707260008201527f6f70657274790000000000000000000000000000000000000000000000000000602082015250565b6000611743602683610f76565b915061174e826116e7565b604082019050919050565b6000602082019050818103600083015261177281611736565b9050919050565b600060408201905061178e60008301856111da565b61179b60208301846111da565b9392505050565b600081905092915050565b60006117b882610f6b565b6117c281856117a2565b93506117d2818560208601610f87565b80840191505092915050565b60006117ea82846117ad565b91508190509291505056fea2646970667358221220011422a9d92cd7aa823fe494cb5ee05f938c47724f5f7794399b56cab1a7f75064736f6c63430008120033",
  "linkReferences": {},
  "deployedLinkReferences": {}
}